:020000040800F2
:1000000000000220594400086D3B00086F3B0008C7
:10001000713B0008733B0008753B000800000000BE
:10002000000000000000000000000000773B000816
:10003000793B0008000000007B3B00087D3B000886
:10004000A9440008A9440008A9440008A9440008DC
:10005000A9440008A9440008A9440008A9440008CC
:10006000A9440008A9440008A9440008A9440008BC
:10007000A9440008A9440008A9440008A9440008AC
:10008000A9440008A9440008A9440008A94400089C
:10009000A9440008A9440008A9440008A94400088C
:1000A000A9440008A9440008A9440008813B0008AD
:1000B0008D3B0008993B0008A53B0008A9440008B7
:1000C000A9440008A9440008A9440008A94400085C
:1000D000A9440008B13B0008A9440008A94400084D
:1000E000A9440008A9440008A9440008A94400083C
:1000F000A9440008A9440008A9440008A94400082C
:10010000A9440008A9440008A9440008A94400081B
:10011000A9440008A9440008A9440008BD3B000800
:10012000C93B0008A9440008A9440008A9440008E4
:10013000A9440008A9440008A9440008A9440008EB
:10014000A9440008A9440008A9440008A9440008DB
:10015000A9440008A9440008A9440008A9440008CB
:10016000A9440008A9440008A9440008A9440008BB
:10017000A9440008A9440008A944000800000000A0
:08018000A9440008A94400088D
:1001900010B5054C237833B9044B13B10448AFF3C1
:1001A00000800123237010BD7800002000000000B3
:1001B0000053000808B5034B1BB103490348AFF3D4
:1001C000008008BD000000007C00002000530008F3
:1001D00001F0FF01102A2BDB10F0070F08D010F8F8
:1001E000013B013A8B422DD010F0070F42B3F6D1FC
:1001F000F0B441EA012141EA014122F007047FF015
:1002000000070023F0E80256083C85EA010586EA6B
:10021000010685FA47F5A3FA87F586FA47F6A5FAA7
:1002200087F68EB9EED1F0BC01F0FF0102F00702B3
:1002300032B110F8013B013A83EA010313B1F8D15E
:100240000020704701387047002D06BF354603383F
:10025000073815F0010F07D1013015F4807F02BF78
:10026000013015F4C03F0130F0BC0138704700BFC9
:1002700081F0004102E000BF83F0004330B54FEA57
:1002800041044FEA430594EA050F08BF90EA020FC4
:100290001FBF54EA000C55EA020C7FEA645C7FEA57
:1002A000655C00F0E2804FEA5454D4EB5555B8BF7A
:1002B0006D420CDD2C4480EA020281EA030382EAEB
:1002C000000083EA010180EA020281EA0303362D7D
:1002D00088BF30BD11F0004F4FEA01314FF4801C50
:1002E0004CEA113102D0404261EB410113F0004F62
:1002F0004FEA03334CEA133302D0524263EB430319
:1003000094EA050F00F0A780A4F10104D5F1200EB6
:100310000DDB02FA0EFC22FA05F2801841F1000111
:1003200003FA0EF2801843FA05F359410EE0A5F1E5
:1003300020050EF1200E012A03FA0EFC28BF4CF016
:10034000020C43FA05F3C01851EBE37101F00045CC
:1003500007D54FF0000EDCF1000C7EEB00006EEBD9
:100360000101B1F5801F1BD3B1F5001F0CD3490863
:100370005FEA30004FEA3C0C04F101044FEA4452BA
:1003800012F5800F80F09A80BCF1004F08BF5FEA41
:10039000500C50F1000041EB045141EA050130BD21
:1003A0005FEA4C0C404141EB010111F4801FA4F1C4
:1003B0000104E9D191F0000F04BF01460020B1FA19
:1003C00081F308BF2033A3F10B03B3F120020CDA51
:1003D0000C3208DD02F1140CC2F10C0201FA0CF02F
:1003E00021FA02F10CE002F11402D8BFC2F1200C94
:1003F00001FA02F120FA0CFCDCBF41EA0C0190404A
:10040000E41AA2BF01EB0451294330BD6FEA040492
:100410001F3C1CDA0C340EDC04F11404C4F120027D
:1004200020FA04F001FA02F340EA030021FA04F38F
:1004300045EA030130BDC4F10C04C4F1200220FAE6
:1004400002F001FA04F340EA0300294630BD21FA24
:1004500004F0294630BD94F0000F83F4801306BFEA
:1004600081F480110134013D4EE77FEA645C18BFDE
:100470007FEA655C29D094EA050F08BF90EA020F75
:1004800005D054EA000C04BF1946104630BD91EA6D
:10049000030F1EBF0021002030BD5FEA545C05D170
:1004A0004000494128BF41F0004130BD14F58004AF
:1004B0003CBF01F5801130BD01F0004545F0FE4123
:1004C00041F470014FF0000030BD7FEA645C1ABF58
:1004D000194610467FEA655C1CBF0B46024650EA8F
:1004E000013406BF52EA033591EA030F41F40021BB
:1004F00030BD00BF90F0000F04BF0021704730B541
:100500004FF4806404F132044FF000054FF0000115
:1005100050E700BF90F0000F04BF0021704730B5D6
:100520004FF4806404F1320410F0004548BF4042AB
:100530004FF000013EE700BF42004FEAE2014FEA00
:1005400031014FEA02701FBF12F07F4393F07F4FDB
:1005500081F06051704792F0000F14BF93F07F4F0D
:10056000704730B54FF4607401F0004521F0004150
:1005700020E700BF50EA010208BF704730B54FF0D6
:1005800000050AE050EA010208BF704730B511F0DB
:10059000004502D5404261EB41014FF4806404F113
:1005A00032045FEA915C3FF4DCAE4FF003025FEA95
:1005B000DC0C18BF03325FEADC0C18BF033202EB1D
:1005C000DC02C2F1200300FA03FC20FA02F001FA77
:1005D00003FE40EA0E0021FA02F11444C1E600BF16
:1005E00070B54FF0FF0C4CF4E06C1CEA11541DBFC9
:1005F0001CEA135594EA0C0F95EA0C0F00F0DEF894
:100600002C4481EA030621EA4C5123EA4C5350EA78
:10061000013518BF52EA033541F4801143F48013C9
:1006200038D0A0FB02CE4FF00005E1FB02E506F05A
:100630000042E0FB03E54FF00006E1FB03569CF0AF
:10064000000F18BF4EF0010EA4F1FF04B6F5007FB5
:1006500064F5407404D25FEA4E0E6D4146EB060627
:1006600042EAC62141EA55514FEAC52040EA5E50B0
:100670004FEACE2EB4F1FD0C88BFBCF5E06F1ED85A
:10068000BEF1004F08BF5FEA500E50F1000041EB91
:10069000045170BD06F0004646EA010140EA02003E
:1006A00081EA0301B4EB5C04C2BFD4EB0C0541EA60
:1006B000045170BD41F480114FF0000E013C00F375
:1006C000AB8014F1360FDEBF002001F0004170BD99
:1006D000C4F10004203C35DA0C341BDC04F11404B2
:1006E000C4F1200500FA05F320FA04F001FA05F23E
:1006F00040EA020001F0004221F0004110EBD3700B
:1007000021FA04F642EB06015EEA430E08BF20EA36
:10071000D37070BDC4F10C04C4F1200500FA04F3D9
:1007200020FA05F001FA04F240EA020001F000416B
:1007300010EBD37041F100015EEA430E08BF20EADE
:10074000D37070BDC4F1200500FA05F24EEA020E26
:1007500020FA04F301FA05F243EA020321FA04F055
:1007600001F0004121FA04F220EA020000EBD3700C
:100770005EEA430E08BF20EAD37070BD94F0000F0C
:100780000FD101F00046400041EB010111F4801F40
:1007900008BF013CF7D041EA060195F0000F18BFF1
:1007A000704703F00046520043EB030313F4801F2D
:1007B00008BF013DF7D043EA0603704794EA0C0FE7
:1007C0000CEA135518BF95EA0C0F0CD050EA4106FD
:1007D00018BF52EA4306D1D181EA030101F000417A
:1007E0004FF0000070BD50EA410606BF10461946A2
:1007F00052EA430619D094EA0C0F02D150EA0136AE
:1008000013D195EA0C0F05D152EA03361CBF1046EE
:1008100019460AD181EA030101F0004141F0FE418D
:1008200041F470014FF0000070BD41F0FE4141F411
:10083000780170BD70B54FF0FF0C4CF4E06C1CEA11
:1008400011541DBF1CEA135594EA0C0F95EA0C0FC6
:1008500000F0A7F8A4EB050481EA030E52EA033581
:100860004FEA013100F088804FEA03334FF08055A2
:1008700045EA131343EA12634FEA022245EA1115CF
:1008800045EA10654FEA00260EF000419D4208BF80
:10089000964244F1FD0404F5407402D25B084FEA2D
:1008A0003202B61A65EB03055B084FEA32024FF4D9
:1008B00080104FF4002CB6EB020E75EB030E22BF36
:1008C000B61A754640EA0C005B084FEA3202B6EBF6
:1008D000020E75EB030E22BFB61A754640EA5C00A5
:1008E0005B084FEA3202B6EB020E75EB030E22BF35
:1008F000B61A754640EA9C005B084FEA3202B6EB36
:10090000020E75EB030E22BFB61A754640EADC00F4
:1009100055EA060E18D04FEA051545EA16754FEA56
:1009200006164FEAC30343EA52734FEAC2025FEA74
:100930001C1CC0D111F4801F0BD141EA00014FF003
:1009400000004FF0004CB6E711F4801F04BF0143D4
:100950000020B4F1FD0C88BFBCF5E06F3FF6AFAEF0
:10096000B5EB030C04BFB6EB020C5FEA500C50F180
:10097000000041EB045170BD0EF0004E4EEA113103
:1009800014EB5C04C2BFD4EB0C0541EA045170BD0A
:1009900041F480114FF0000E013C90E645EA060E4E
:1009A0008DE60CEA135594EA0C0F08BF95EA0C0F7C
:1009B0003FF43BAF94EA0C0F0AD150EA01347FF4C4
:1009C00034AF95EA0C0F7FF425AF104619462CE79B
:1009D00095EA0C0F06D152EA03353FF4FDAE1046FE
:1009E000194622E750EA410618BF52EA43067FF44F
:1009F000C5AE50EA41047FF40DAF52EA43057FF4DF
:100A0000EBAE12E74FEA410212F5001215D211D5F2
:100A10006FF47873B3EB625212D94FEAC12343F0FB
:100A2000004343EA505311F0004F23FA02F018BF7D
:100A3000404270474FF00000704750EA013005D146
:100A400011F0004008BF6FF0004070474FF0000009
:100A5000704700BF4A0011D212F5001211D20DD515
:100A60006FF47873B3EB62520ED44FEAC12343F0B4
:100A7000004343EA505323FA02F070474FF000005E
:100A8000704750EA013002D14FF0FF3070474FF00D
:100A9000000070474FEA4102B2F1E04324BFB3F5D2
:100AA000001CDCF1FE5C0DD901F0004C4FEAC002E5
:100AB0004CEA5070B2F1004F40EB830008BF20F0C9
:100AC0000100704711F0804F21D113F13872BCBF83
:100AD00001F00040704741F480114FEA5252C2F1D8
:100AE0001802C2F1200C10FA0CF320FA02F018BF21
:100AF00040F001004FEAC1234FEAD32303FA0CFC74
:100B000040EA0C0023FA02F34FEA4303CCE77FEA02
:100B1000625307D150EA01331EBF4FF0FE4040F44C
:100B20004000704701F0004040F0FE4040F40000FB
:100B3000704700BF53B94AB9002908BF00281CBF3D
:100B40004FF0FF314FF0FF3000F07AB9ADF1080CF3
:100B50006DE904CE00F006F8DDF804E0DDE90223DB
:100B600004B070472DE9F0478C460D460446089EB8
:100B7000002B51D18A4217466DD9B2FA82FEBEF1DE
:100B8000000F0BD0CEF1200C01FA0EF520FA0CFC70
:100B900002FA0EF74CEA050C00FA0EF44FEA174A77
:100BA000250CBCFBFAF81FFA87F90AFB18CC45EABA
:100BB0000C4508FB09F3AB420AD9ED1908F1FF32E5
:100BC00080F02381AB4240F22081A8F102083D442D
:100BD000ED1AA4B2B5FBFAF00AFB105544EA05443D
:100BE00000FB09F9A14509D9E41900F1FF3380F0B0
:100BF0000A81A14540F2078102383C44A4EB090474
:100C000040EA08400021002E61D024FA0EF40023AF
:100C100034607360BDE8F0878B4207D9002E54D052
:100C2000002186E821000846BDE8F087B3FA83F189
:100C3000002940F08E80AB4202D3824200F2FA805B
:100C4000841A65EB03050120AC46002E3FD086E8F0
:100C50001010BDE8F08712B90127B7FBF2F7B7FA19
:100C600087FEBEF1000F34D1EB1B3A0C1FFA87FC54
:100C70000121B3FBF2F8250C02FB183345EA0345CA
:100C80000CFB08F3AB4207D9ED1908F1FF3002D293
:100C9000AB4200F2D1808046ED1AA3B2B5FBF2F070
:100CA00002FB105543EA05440CFB00FCA44507D9A0
:100CB000E41900F1FF3302D2A44500F2B8801846CF
:100CC000A4EB0C0440EA08409DE731463046BDE8FD
:100CD000F087CEF1200405FA0EF307FA0EF720FA9A
:100CE00004F83A0C25FA04F448EA0308B4FBF2F1DC
:100CF0004FEA184502FB11441FFA87FC45EA0445F8
:100D000001FB0CF3AB4200FA0EF409D9ED1901F125
:100D1000FF3080F08A80AB4240F2878002393D4448
:100D2000EB1A1FFA88F5B3FBF2F002FB103345EA29
:100D3000034500FB0CF3AB4207D9ED1900F1FF3876
:100D40006FD2AB426DD902383D44EB1A40EA014103
:100D50008FE7C1F1200722FA07F88B4005FA01F46A
:100D600048EA030320FA07FE4FEA134CFD404EEA1F
:100D7000040EB5FBFCF94FEA1E440CFB19551FFA93
:100D800083F844EA054509FB08F4AC4202FA01F293
:100D900000FA01FA08D9ED1809F1FF3043D2AC424C
:100DA00041D9A9F102091D442D1B1FFA8EFEB5FB86
:100DB000FCF00CFB10554EEA054400FB08F8A0457A
:100DC00007D9E41800F1FF3529D2A04527D9023808
:100DD0001C4440EA0940A4EB0804A0FB02894C45EE
:100DE000C6464D4615D312D056B1BAEB0E0364EB8E
:100DF000050404FA07F7CB401F43CC40376074600A
:100E00000021BDE8F0871846F8E69046E0E6C245C6
:100E1000EAD2B8EB020E69EB03050138E4E7284695
:100E2000D7E7404691E78146BEE7014678E70238BA
:100E30003C4445E7084608E7A8F102083D442BE793
:100E4000704700BF38B50E4A0E4B054618784FF470
:100E50007A73B3FBF0F31068B0FBF3F000F0B0FA74
:100E6000044658B90F2D09D8024629464FF0FF30E5
:100E700000F064FA044B20461D6038BD012038BDE7
:100E800010000020000000200400002008B50B4BDB
:100E90001A6842F400721A601A6842F480621A609A
:100EA0001A6842F480721A60032000F035FA0020BC
:100EB000FFF7C8FF02F03EFE002008BD003C0240E4
:100EC000034A044B11681B780B441360704700BF42
:100ED000CC00002000000020014B1868704700BFC4
:100EE000CC00002038B50446002800F09B80056C3B
:100EF00025B901F075FF656484F83C50236CDB066E
:100F000000F18E80236C23F4885323F0020343F016
:100F100002032364444B5A6822F440325A605A68F0
:100F200061680A435A60236821695A6822F4807212
:100F30005A605A6842EA01225A605A68A16822F04F
:100F400040725A605A680A435A609A68E16822F40B
:100F500000629A609A680A439A603449A26A8A4297
:100F600052D0996821F07061996099680A439A603B
:100F70009A68E16A22F040529A609A680A439A603D
:100F80009A68217E22F002029A609A6842EA41023F
:100F90009A6094F82020002A3ED05A68616A42F490
:100FA00000625A605A6822F460425A605A680139F5
:100FB00042EA41325A60DA6AE16922F47002DA6286
:100FC000DA6A013942EA0152DA629A6894F830101A
:100FD00022F400729A609A6842EA41229A609A6802
:100FE000616922F480629A609A68002042EA812254
:100FF0009A606064236C23F0030343F001032364CD
:10100000002384F83C3038BD9A6822F070629A6000
:101010009A6822F04052B2E75A6822F40062C9E7A7
:101020000120EDE7012038BD002301400100000F41
:1010300037B513460022019290F83C20012A04465D
:1010400077D00568012280F83C20AA68D00705D532
:10105000AA68D20715D4002003B030BDAA6842F0B8
:101060000102AA60344A1068344AB0FBF2F000EB87
:1010700040000190019A002AEAD0019A013A0192B7
:10108000F8E7206C20F4E06020F0010040F480706C
:1010900020646A68500541BF206C20F4405040F441
:1010A00080502064226CA06B12F480521CBF626CD2
:1010B00022F006026264002284F83C20204AC263C7
:1010C000204A0264204AC2646FF022022A606A68E1
:1010D00042F080626A60AA6842F48072AA600A469E
:1010E00005F14C0100F016FA184A1949536813F03B
:1010F0001F0F23681AD18B4206D001F580718B42F5
:101100000BD15268D206A6D1986810F04050A2D1F7
:101110009A6842F080429A609EE70E498B429AD1CB
:10112000526802F01F020F2AEED994E78B4292D147
:10113000EAE7022090E700BF1000002040420F00C5
:101140007F1100085D1100086911000800230140AB
:1011500000200140002201407047704708B5806BB5
:10116000FFF7FBFF08BD7047806B08B540230364A1
:10117000436C43F004034364FFF7F5FF08BD836B42
:101180001A6C12F0500F10B51A6C23D142F4007291
:101190001A641A68916811F0405F17D1197EA9B9D5
:1011A000D16A11F4700F02D0916848050ED45168CD
:1011B00021F0200151601A6C22F480721A641A6CBA
:1011C000D1045EBF1A6C42F001021A641846FFF7A0
:1011D000C3FF10BDD20603D51846FFF7C4FF10BDEC
:1011E0009B6BBDE81040DB6C18470000F7B500238F
:1011F000019390F83C30012B00F083800D68046867
:101200008A680123092D80F83C30AEB22AD906EB5A
:101210004603E7681E3B4FF0070E0EFA03FE27EA6F
:101220000E07E760E76802FA03F33B43E3604A68AE
:10123000062A4FEA820325D81344676B591F1F23E0
:101240008B4027EA03036363626B06FA01F11143E3
:1012500061632D4B9C4234D0002380F83C3018460B
:1012600003B0F0BD276905EB45034FF0070E0EFAFA
:1012700003FE27EA0E072761276902FA03F33B43BF
:101280002361D4E70C2A0ED81344216BA3F1230267
:101290001F23934021EA03032363236B06FA02F220
:1012A0001A432263D5E71344E16A413B1F229A4067
:1012B00021EA0202E262E26A06FA03F11143E16204
:1012C000C7E7122D04D1114A536843F480035360D9
:1012D000A5F11003012BBFD80C4A5368102D43F41D
:1012E00000035360B8D10A4B0A4A1B68B3FBF2F201
:1012F0000A2353430193019B002BADD0019B013B7B
:10130000F8E70220ACE700BF0020014000230140C5
:101310001000002040420F00074AD36823F4E06326
:101320001B041B0C43F0BF63000243F4003300F4C2
:10133000E0600343D360704700ED00E0174B30B529
:10134000DC68C4F30224C4F10703251D042B28BF65
:101350000423062D4FF0010505FA03F303F1FF33D3
:101360008CBF033C00241940A14005FA04F4013C61
:101370002240002842EA01024FEA0212ADBF00F10A
:10138000604000F00F00064B00F56140B5BFD2B2DF
:10139000D2B21A5480F8002330BD00BF00ED00E047
:1013A00014ED00E0002808DB4209012300F01F00D3
:1013B00003FA00F0014B43F82200704700E100E01F
:1013C0000138B0F1807F0AD2064B074A5860F021FD
:1013D00082F823100020072298601A6070470120CD
:1013E000704700BF10E000E000ED00E00368DAB2F3
:1013F00023F47F7323F003031821103AB2FBF1F2B8
:101400000449032A88BF0433895C8365C165806D04
:10141000704700BF1853000870B50446FFF75CFD25
:101420000546002C71D0002384F834302268022352
:1014300084F83530136823F00103136021680B68CA
:10144000D8073CD40B68324D6268A0691D40A36880
:101450001343E26813432269134362691343E26949
:1014600003431343226A1343626A042A43EA0503CF
:1014700001BF266BE56A35432B430B604B69042A99
:1014800023F0070343EA02030BD1A26AE56A134380
:101490003DB1F8B9012A2DD001D3022A01D1EA01C8
:1014A0002BD44B612046FFF7A1FFE26D3F23934011
:1014B000836000200123606584F8353070BDFFF73C
:1014C0000BFD401B0528B9D920236365032084F850
:1014D000350070BDB0F5005F13D1032AE1D801A03B
:1014E00050F822F0FB1400089F140008FB140008B9
:1014F000F5140008B5F1C07FD3D140236365012006
:10150000E5E7022AF9D9032AC8E7012070BD00BF28
:101510003F8010F070B590F83440012C36D0012493
:1015200080F8344090F83540866D012C4FF000056E
:101530004FF0020428D180F83540046845652568DD
:1015400025F48025256063608368402B0EBFA26070
:10155000A160E260C26D08BFE1603F239340B360C9
:10156000236843F016032360636943F080036361DB
:10157000036C1BB1236843F008032360236843F026
:1015800001032360002070BD80F83450022070BD3C
:1015900090F83530022B03D080234365012070473B
:1015A0000268052380F83530136823F001031360C7
:1015B00000207047F7B5002301935A4B856D1F68D3
:1015C000C36D2E6808229A40164204460CD001686A
:1015D0000868400708D5086820F004000860AA6081
:1015E000626D42F00102626501229A40164208D003
:1015F00021684969090641BFAA60626D42F0020292
:10160000626504229A40164208D02168096888075A
:1016100041BFAA60626D42F00402626510229A40E6
:10162000164210D02368196809070CD5AA601A68F9
:10163000500335D51B68190301D4236C00E0A36C5B
:101640000BB120469847E16D20228A40164238D0DF
:1016500023681868C60634D5AA6094F83520052A90
:101660001A6825D122F016021A605A6922F0800207
:101670005A61226C0AB9A26C1AB11A6822F00802E7
:101680001A603F238B40AB60002384F83430012381
:1016900084F83530236D0BB12046984703B0F0BD78
:1016A0001A68D2055EBF1A6822F008021A60C4E701
:1016B000500328D51B68190332D4636C0BB1204644
:1016C0009847636D002BE9D0636DDA0719D50523C0
:1016D000226884F83530136823F0010313604FF457
:1016E0001653B7FBF3F7019B01339F42019302D3DB
:1016F0001368DB07F7D4002384F83430012384F81F
:101700003530E36CC7E71A6812F4807208D11968A3
:1017100021F010011960012384F8342084F8353059
:10172000E36BCBE7100000202DE9F04F85B00B688C
:10173000DFF8AC81684ADFF8AC91019300234FF0E9
:10174000010E019C0EFA03FE0EEA0406B64540F0B7
:10175000AE804C6824F01007022F16D14FEAD30A4E
:1017600000EB8A0A03F0070BDAF820504FEA8B0BE4
:101770004FF00F0C0CFA0BFC25EA0C0C0D6905FA66
:101780000BF545EA0C05CAF820504FEA430A032539
:10179000D0F800B005FA0AF5ED4304F0030C0BEAAB
:1017A000050B0CFA0AFC013F4CEA0B0C012FC0F8A8
:1017B00000C011D8876807EA050BCF6807FA0AFC52
:1017C0004CEA0B078760476827EA0E0EC4F3001740
:1017D0009F4047EA0E074760C7683D408F6807FA99
:1017E0000AF73D43C560E50061D54FF0000BCDF829
:1017F0000CB0D8F84470394D47F48047C8F84470AD
:10180000D8F8447007F480470397039F23F0030739
:1018100007F1804707F59C3703F0030CD7F808A0C1
:101820004FEA8C0C4FF00F0E0EFA0CFEA8422AEA7B
:101830000E0E43D005F58065A84241D005F58065C0
:10184000A8423FD005F58065A8423DD005F58065EA
:10185000A8423BD048453BD005F50065A84239D0A9
:1018600005F58065A84214BF0825072505FA0CF583
:1018700045EA0E05BD601568F74314F4803F0CBFC0
:101880003D4035431560556814F4003F0CBF3D40A2
:1018900035435560956814F4801F0CBF3D403543B7
:1018A0009560D568A40254BF3D403543D5600133EF
:1018B000102B7FF444AF05B0BDE8F08F5D46D5E74F
:1018C0000125D3E70225D1E70325CFE70425CDE79E
:1018D0000525CBE70625C9E7003C01400000024092
:1018E00000380240001402400369194214BF01206D
:1018F000002070472DE9F341044618B9012002B0D9
:10190000BDE8F0810368DD0710D42368980758D438
:1019100023681A0700F19A8023685B0700F1B880FA
:10192000A269002A40F019810020E8E7A64B9A68D6
:1019300002F00C02042A07D09A6802F00C02082A6E
:101940000AD15B68590207D59F4B1B689A03DCD507
:101950006368002BD9D1D1E763689B4DB3F5803F15
:1019600011D12B6843F480332B60FFF7B5FA964D05
:1019700006462B689B03C8D4FFF7AEFA801B642889
:10198000F7D90320BBE7B3F5A02F04D12B6843F4AC
:1019900080232B60E5E72A6822F480322A602A68D7
:1019A00022F480222A60002BDFD1FFF795FA064649
:1019B0002B689F03A9D5FFF78FFA801B6428F7D9FE
:1019C000DFE7814B9A6812F00C0F07D09A6802F09B
:1019D0000C02082A11D15B685E020ED47A4B1A6899
:1019E000950702D5E268012A88D11A68216922F098
:1019F000F80242EAC1021A608AE7E268734BB2B1A8
:101A000001221A60FFF768FA6F4D06462B689807A7
:101A100007D52B68226923F0F80343EAC2032B6041
:101A200076E7FFF759FA801B0228EFD9A9E71A6079
:101A3000FFF752FA644D06462B6899077FF568AFA9
:101A4000FFF74AFA801B0228F6D99AE76269604BD1
:101A50007AB101221A60FFF73FFA5B4D06466B6FC1
:101A60009F073FF559AFFFF737FA801B0228F6D9D9
:101A700087E71A60FFF730FA534D06466B6F9807F9
:101A80007FF54AAFFFF728FA801B0228F6D978E7DE
:101A90004D4B1A6C12F0805228D101921A6C42F010
:101AA00080521A641B6C03F080530193019B012642
:101AB000484D2B68D9051BD5A368434D012B27D171
:101AC0002B6F43F001032B67FFF706FA3E4D0746E5
:101AD00041F288382B6F9B0739D5002E3FF420AF99
:101AE000394A136C23F08053136419E70026DFE7AB
:101AF0002B6843F480732B60FFF7EEF907462B68E1
:101B0000DA05D9D4FFF7E8F9C01B0228F7D938E77E
:101B1000052B04D12B6F43F004032B67D0E72A6F0A
:101B200022F001022A672A6F22F004022A67002BA2
:101B3000CAD1FFF7D1F941F2883807462B6F9807D1
:101B4000CBD5FFF7C9F9C01B4045F7D919E7FFF717
:101B5000C3F9C01B4045BDD913E71B4DAB6803F06B
:101B60000C03082B3FF4CAAE1B4E0023022A33603D
:101B700034D1FFF7B1F907462B6899011ED4226AC8
:101B8000E3691343626A43EA8213E26A43EA026347
:101B9000A26A0D4C5208013A43EA02436B600123EA
:101BA0003360FFF799F9054623689A013FF5BCAE0B
:101BB000FFF792F9401B0228F6D9E2E6FFF78CF90D
:101BC000C01B0228D8D9DCE600380240000047429A
:101BD000800E47420070004060004742FFF77CF9EA
:101BE00004462B689B017FF59FAEFFF775F9001B3C
:101BF0000228F6D9C5E600BF134908B58B6803F083
:101C00000C03042B03D0082B03D0104808BD104848
:101C100008BD4A684B68496813F4800314BF0C4838
:101C20000A48C1F3881118BF002302F03F02A1FB4C
:101C30000001FEF77FFF044B5B68C3F301430133F0
:101C40005B00B0FBF3F008BD003802400024F40054
:101C500000127A002DE9F0410D46044610B901202A
:101C6000BDE8F081444B1A6802F00F028A4228D383
:101C700021688F072DD4C80740D43F4B1A6802F063
:101C80000F02954266D3226851076CD4130707D51B
:101C90003A4A2169936823F4604343EAC10393609D
:101CA000FFF7AAFF354B364A9B68C3F30313D35C97
:101CB000D840344B18600020FFF7C4F80020BDE87E
:101CC000F081CAB21A701B6803F00F039942C6D1A3
:101CD000CEE72A4B11F0040F1EBF9A6842F4E0527F
:101CE0009A600E0742BF9A6842F460429A609A680E
:101CF000A06822F0F00202439A60BCE762681F4BC2
:101D0000012A1DD11B6813F4003FA8D01B4EB368F5
:101D100023F003031343B360FFF7DEF841F2883882
:101D20000746B368626803F00C03B3EB820FA4D0DC
:101D3000FFF7D2F8C01B4045F3D90320BDE8F0817E
:101D4000911E01291B6802D813F0007FDDE713F014
:101D5000020FDAE7EAB21A701B6803F00F039D4224
:101D60007FF47DAF8FE70549E0688B6823F4E0538B
:101D700003438B608AE700BF003C0240003802400A
:101D80005053000810000020044B054A9B68C3F321
:101D90008223D35C034A1068D84070470038024061
:101DA0006053000810000020044B054A9B68C3F3F1
:101DB0004233D35C034A1068D84070470038024071
:101DC0006053000810000020036A23F0010303623F
:101DD000036A70B5446882690D6822F073022A4371
:101DE0008D6823F002032B430E4DA84202D00E4E05
:101DF000B04210D1CE6823F008033343A84223F049
:101E0000040302D0084DA84205D14D698E6924F41F
:101E1000407435432C43446082614A6842630362E4
:101E200070BD00BF0000014000040140036A23F4BC
:101E300080730362036A70B54468C2690D6822F05A
:101E400073022A438D6823F4007343EA0523114D7E
:101E5000A84203D005F58065A84214D1CD6823F4CB
:101E6000006343EA05230B4DA84223F4806303D0AB
:101E700005F58065A84206D14D698E6924F4405469
:101E8000354344EA05144460C2614A68C263036290
:101E900070BD00BF00000140036A23F48053036259
:101EA000036A30B54468C2690D6822F4E64242EA2A
:101EB00005228D6823F4005343EA0533084DA842F8
:101EC00003D005F58065A84204D14D6924F480440F
:101ED00044EA85144460C2614A680264036230BD0A
:101EE000000001400368DA6842F00102DA609A6893
:101EF00002F00702062A1EBF1A6842F001021A60A9
:101F000000207047036889B1042907D01A6A22F0BB
:101F100001021A621A6A42F001021A621A6A22F077
:101F200010021A621A6A42F0100206E01A6A22F0DF
:101F300001021A621A6A42F001021A621A6842F039
:101F400001021A60002070470C2914D8DFE801F064
:101F5000071313130A1313130D131313100003683D
:101F6000586B70470368986B70470368D86B70476D
:101F70000368186C704700207047704770477047BF
:101F800003681A69910710B504460ED5DA689207FE
:101F90000BD56FF002021A619B6901229B07027741
:101FA00077D001F021FC0023237723681A695007BA
:101FB00010D5DA6851070DD56FF004021A619B69DC
:101FC000022213F4407F2277204668D001F00CFCF7
:101FD0000023237723681A6912070FD5DA681007E0
:101FE0000CD56FF008021A61DB6904229907227789
:101FF00020465AD001F0F8FB0023237723681A69A2
:10200000D20610D5DA68D0060DD56FF010021A612D
:10201000DB69082213F4407F227720464BD001F081
:10202000E3FB0023237723681A69D10708D5DA6810
:10203000D20705D56FF001021A61204601F014FCA9
:1020400023681A69100608D5DA68110605D56FF0FD
:1020500080021A61204600F00DFB23681A695206BF
:1020600008D5DA68500605D56FF040021A6120469F
:10207000FFF785FF23681A69910622D5DA68920670
:102080001FD56FF0200220461A61BDE8104000F015
:10209000F0BAFFF772FF2046FFF770FF83E7FFF704
:1020A0006CFF2046FFF76AFF92E7FFF766FF2046C6
:1020B000FFF764FFA0E7FFF760FF2046FFF75EFF32
:1020C000AFE710BD304A0368904212D0B0F1804FA4
:1020D0000FD0A2F57C4290420BD002F58062904274
:1020E00007D002F58062904203D002F57842904218
:1020F00019D14A6823F070031343234A904229D030
:10210000B0F1804F26D0A2F57C42904222D002F559
:10211000806290421ED002F5806290421AD002F591
:102120007842904216D0194A904213D002F580624C
:1021300090420FD002F5806290420BD0A2F5983207
:10214000904207D002F58062904203D002F580628F
:10215000904203D1CA6823F4407313434A6923F0C1
:102160008003134303608B68C3620B688362064B72
:10217000984203D003F58063984201D10B69036351
:1021800001234361704700BF00000140004001404F
:1021900010B50446A0B190F83D3003F0FF021BB922
:1021A00080F83C2001F09EFF022384F83D30206837
:1021B000211DFFF787FF012384F83D30002010BD6B
:1021C000012010BD10B50446A0B190F83D3003F0D9
:1021D000FF021BB980F83C2001F0C8FF022384F8FD
:1021E0003D302068211DFFF76DFF012384F83D304D
:1021F000002010BD012010BD10B50446A0B190F81C
:102200003D3003F0FF021BB980F83C2001F07CFE5A
:10221000022384F83D302068211DFFF753FF01237E
:1022200084F83D30002010BD012010BDF8B50C46EB
:102230000546002843D090F83D3003F0FF021BB95B
:1022400080F83C2001F0E4FE2946022351F8040BFB
:1022500085F83D30836823F4804323F007038360CF
:10226000FFF730FF2868236886688269A168076ADB
:102270001E43A36922F4407222F0030241EA0323C1
:10228000134323F47C422369E1691B0143EA0123E0
:10229000E1680B43216A22F0FC0243EA0133134355
:1022A000616927F0AA026768866047EA01178361BF
:1022B00017430123076285F83D300020F8BD012057
:1022C000F8BD0000036A23F010030362036A70B5CF
:1022D000446882690D6822F4E64242EA05228D686C
:1022E00023F0200343EA0513104DA84203D005F55F
:1022F0008065A84214D1CD6823F0800343EA05131A
:102300000A4DA84223F0400303D005F58065A8429A
:1023100006D14D698E6924F44064354344EA85044E
:10232000446082614A688263036270BD00000140BC
:1023300038B590F83C30012B04464FF0020025D010
:10234000012384F83C3084F83D000C2A18D8DFE8DB
:1023500002F0071717171E1717172F171717400028
:102360002068FFF731FD236809699A6942F0080285
:102370009A619A6922F004029A619A690A439A6101
:102380000123002084F83D3084F83C0038BD2068EB
:10239000FFF798FF236809699A6942F400629A611D
:1023A0009A6922F480629A619A6942EA0122E6E718
:1023B0002068FFF73BFD23680969DA6942F00802EB
:1023C000DA61DA6922F00402DA61DA690A43DA6171
:1023D000D6E72068FFF760FD23680969DA6942F4EF
:1023E0000062DA61DA6922F48062DA61DA6942EA6B
:1023F0000122ECE770B5046A1A4E24F0010404626D
:10240000B0428469056A1AD0B0F1804F17D0A6F5A2
:102410007C46B04213D006F58066B0420FD006F578
:102420008066B0420BD006F57846B04207D006F57C
:102430007056B04203D0A6F59436B0420FD124F0C6
:10244000030422431B0122F0F002DBB225F00A054F
:1024500001F00A011A4329438261016270BD44F010
:102460000102EFE700000140F8B590F83C30012B85
:1024700004460D464FF0020019D0012384F83C3089
:1024800084F83D00A2B9CB68206806C9FFF7B2FF07
:102490002368A9689A6922F00C029A619A690A4332
:1024A0009A610123002084F83D3084F83C00F8BD97
:1024B000042A8E682368E86882C91FD11A6A22F04C
:1024C00010021A629A691D6A22F4407242EA0722D7
:1024D000000380B222F470420901024301F0A0011E
:1024E00025F0A00001439A6119629A6922F44062C2
:1024F0009A619A6942EA06269E61D2E7082A1A6A18
:102500001CD122F480721A62DA691D6A22F0030279
:102510003A430001C0B222F0F0020902024301F482
:10252000206125F420600143DA611962DA6922F042
:102530000C02DA61DA691643DE61B2E722F48052F6
:102540001A62DA691D6A22F4407242EA0722000325
:1025500022F4704280B20903104301F4204125F4B3
:1025600020421143D8611962DA6922F44062DA61CB
:10257000DA6942EA0626DFE7036A01F01F0110B5B7
:1025800001248C4023EA04030362036A8A401A434D
:10259000026210BD10B5044601220068FFF7ECFF8F
:1025A00023680B4A93420ED002F5806293420AD010
:1025B0009A6802F00702062A03D01A6842F0010264
:1025C0001A60002010BD5A6C42F400425A64EFE7D2
:1025D0000000014010B504460C290DD8DFE801F0D9
:1025E000070C0C0C1C0C0C0C210C0C0C26000268AB
:1025F000D36843F00203D36020680122FFF7BCFFD9
:1026000023689A6802F00702062A1EBF1A6842F081
:1026100001021A60002010BD0268D36843F0040371
:10262000E9E70268D36843F00803E4E70268D36887
:1026300043F01003DFE790F83C30012B30B54FF04A
:10264000020314D0046880F83D306268A3680D6806
:10265000496822F0700223F080030B432A43626032
:10266000A360012380F83D30002380F83C301846F9
:1026700030BD704770470368DA6822F49072DA6000
:102680005A6922F001025A61202380F83A307047DB
:102690002DE9F0470668C2683369C16923F44053E5
:1026A00013433361044683680069F2680343606939
:1026B00022F41642034322F00C020B431343F3604F
:1026C0007369A26923F440731343B1F5004F73613A
:1026D0007A4B7CD19E4203D003F580639E4244D165
:1026E000FFF762FB192505FB00F360684FF06409F2
:1026F0004000B3FBF0F3B3FBF9F34FEA0318FFF725
:1027000053FB636868435B00B0FBF3F7FFF74CFBD8
:10271000636868435B00B0FBF3F3B3FBF9F309FBB9
:102720001373DB003233B3FBF9F35B0003F4F87788
:10273000FFF73AFB626868435200B0FBF2FAFFF71A
:1027400033FB636868435B00B0FBF3F3B3FBF9F35F
:1027500009FB13A3DB003233B3FBF9F303F00703E8
:1027600043443B44B360BDE8F087FFF70DFB1925F8
:1027700005FB00F360684FF064094000B3FBF0F321
:10278000B3FBF9F34FEA0318FFF7FEFA63686843F7
:102790005B00B0FBF3F7FFF7F7FA636868435B0091
:1027A000B0FBF3F3B3FBF9F309FB1373DB00323334
:1027B000B3FBF9F35B0003F4F877FFF7E5FA62681F
:1027C00068435200B0FBF2FAFFF7DEFAB9E79E4227
:1027D00002D03B4B9E4240D1FFF7E6FA67681925CD
:1027E0004FF0640905FB00F3BF00B3FBF7F3B3FB45
:1027F000F9F31F01FFF7D8FA636868439B00B0FB49
:10280000F3F8FFF7D1FA636868439B00B0FBF3F37A
:10281000B3FBF9F309FB13831B013233B3FBF9F369
:1028200003F0F008FFF7C0FA626868439200B0FB5B
:10283000F2FAFFF7B9FA636868439B00B0FBF3F361
:10284000B3FBF9F309FB13A31B013233B3FBF9F319
:1028500003F00F0343EA080383E7FFF795FA67687D
:1028600019254FF0640905FB00F3BF00B3FBF7F334
:10287000B3FBF9F31F01FFF787FA636868439B0016
:10288000B0FBF3F8FFF780FA636868439B00B0FB86
:10289000F3F3B3FBF9F309FB13831B013233B3FBEF
:1028A000F9F303F0F008FFF76FFA626868439200EB
:1028B000B0FBF2FAFFF768FABDE700BF0010014075
:1028C0000014014010B5044640B390F8393003F0CD
:1028D000FF021BB980F8382001F07EFD2268242316
:1028E00084F83930D36823F40053D3602046FFF7CF
:1028F000CFFE23681A6922F490421A615A6922F0C5
:102900002A025A61DA6842F40052DA600020202379
:10291000E06384F8393084F83A3010BD012010BDEE
:1029200090F83A30202B20D1E9B1E2B190F838305C
:10293000012B1AD0C285828500232222C36380F82E
:102940003A2002688162D16880F8383041F48071A1
:10295000D160516941F001015161D16841F020011C
:10296000D1601846704701207047022070477047B9
:1029700090F83A30222B10B536D18368016902688D
:10298000B3F5805F836A23D15268E9B9C2F30802C4
:1029900023F8022B8362C48D013CA4B2C4858CB998
:1029A0000368DA6822F02002DA60DA6822F48072C2
:1029B000DA605A6922F001025A61202380F83A3025
:1029C00000F066FF002010BDD2B223F8012BE1E732
:1029D00021B9591C526881621A70DCE75268591C8F
:1029E000816202F07F02F7E7022010BD704700000D
:1029F00003681A68D96870B5160704465D6907D17F
:102A000096065AD58D0658D5BDE87040FFF7B0BF81
:102A100015F0010502D111F4907F4ED0D30705D5F2
:102A2000CE0542BFE36B43F00103E363500704D5D7
:102A30001DB1E36B43F00203E363930704D51DB1BB
:102A4000E36B43F00403E363160704D51DB1E36BA6
:102A500043F00803E363E36B002B66D0950604D5CF
:102A6000880602D52046FFF783FF23685D69E26B85
:102A70001107204602D415F040051AD0FFF7FBFDE0
:102A800023685A69520610D55A69606B22F04002D9
:102A90005A6150B1254B0365FEF77AFD002844D0FA
:102AA000606BBDE87040036D18472046FFF79EFF3E
:102AB00070BDFFF79BFFE56370BD160627D50D06B9
:102AC00025D594F83920212A2FD1A268B2F5805F4C
:102AD000226A17D11188C1F308015960216979B9B7
:102AE00002322262E28C013A92B2E284EAB9DA68F6
:102AF00022F08002DA60DA6842F04002DA6070BDEB
:102B00000132EEE7511C216212785A60EAE7500662
:102B10000BD54A0609D5DA6822F04002DA60202394
:102B200084F839302046FFF722FF70BD312B0008B2
:102B300008B5806B0023C385C384FFF757FF08BD2A
:102B40002DE9F0430A6892FAA2F44FF0010EB4FAAC
:102B500084F403250F2732FA04F30DD14B68013BAF
:102B6000012B06D84368C96823EA02034A431A4383
:102B700042600020BDE8F0830EFA04F3134069D0F0
:102B8000D1F80480D0F8009093FAA3FCBCFA8CFC36
:102B900093FAA3F6B6FA86F64FEA4C0C05FA0CFC4B
:102BA000760029EA0C0C08FA06F64CEA06060660DE
:102BB00008F1FF36012E16D8866893FAA3FCBCFAFA
:102BC0008CFC93FAA3F94FEA4C0C05FA0CFC26EAAC
:102BD0000C0CB9FA89F98E684FEA490906FA09F628
:102BE0004CEA06068660C66893FAA3FCBCFA8CFC25
:102BF00093FAA3F94FEA4C0C05FA0CFC26EA0C0CEC
:102C0000B9FA89F90E694FEA490906FA09F64CEA58
:102C10000606B8F1020FC6601CD193FAA3F6B6FA05
:102C200086F6072ED1F814C016DCD0F8208093FA6F
:102C3000A3F6B6FA86F693FAA3F3B3FA83F3B600D3
:102C400007FA06F69B0028EA06060CFA03FC46EA99
:102C50000C06066201347EE7D0F824801B0A93FA42
:102C6000A3F6B6FA86F693FAA3F3B3FA83F3B600A3
:102C700007FA06F69B0028EA06060CFA03F333432C
:102C80004362E7E7026812F04002F0B5044605D05F
:102C90000120E36923F40063E361F0BD91E888005B
:102CA0003B438F684D690668086A3B43CF683B43E6
:102CB0000F693B438F692B433B43CF6926F47F4623
:102CC0003B43034326F0BF0633432360636823F08E
:102CD000040343EA1545B0F5005F656001D18B8CB4
:102CE00023611046D5E7000030B585B010220021E1
:102CF000684601F005FC3748374A00254FF4803319
:102D000080E82C00354B836201240823046104769B
:102D100080F82050C562C560C36180F830404461CE
:102D2000FEF7E0F808B100F0B3FE03236946294836
:102D3000009501940293FEF759FA08B100F0A8FE3D
:102D400001230224694623488DE81800FEF74EFA55
:102D500008B100F09DFE0094694603241D480194CB
:102D6000FEF744FA08B100F093FE0094694604248B
:102D700018480194FEF73AFA08B100F089FE009471
:102D80006946052413480194FEF730FA08B100F0B3
:102D90007FFE0094694606240E480194FEF726FA49
:102DA00008B100F075FE00946946072409480194B3
:102DB000FEF71CFA08B100F06BFE082369460548CF
:102DC00000940193FEF712FA08B100F061FE05B01D
:102DD00030BD00BFDC000020002001400100000FDA
:102DE00070B5064688B01422002103A801F088FBC4
:102DF0003268204B9A423AD1002503F58C33019575
:102E00005A6C1D481D4C42F480725A645A6C02F48C
:102E100080720192019A02951A6B42F001021A63C4
:102E20001B6B03F001030293029BFF23039303A98F
:102E300003230493FEF778FC114BA56084E8280077
:102E40004FF4806323614FF4006363614FF40053D8
:102E5000A36120464FF48073E560E36125626562FB
:102E6000FEF7DAFA08B100F013FEB463A66308B007
:102E700070BD00BF0020014000000240240100207E
:102E80001064024007B50B4B00220192196B41F40C
:102E9000800119631B6B03F48003019311463820F2
:102EA000019BFEF74BFA3820FEF77CFA03B05DF881
:102EB00004FB00BF00380240054B1A6B02431A6343
:102EC0001B6B82B018400190019B02B0704700BF9D
:102ED000003802402DE9F04786B0182200216846EC
:102EE00001F00EFB1020FFF7E7FF2020FFF7E4FFC3
:102EF0008020FFF7E1FF0120FFF7DEFF0220FFF750
:102F0000DBFF0820FFF7D8FF4020FFF7D5FF0420A4
:102F1000FFF7D2FF3D48DFF800A13D4EDFF8FC800F
:102F2000DFF8FC903B4F4FF47C1383614FF08053EC
:102F3000CAF818304FF0F073B3614FF0F053C8F88F
:102F400018304FF08073C9F818304FF4B8130024CC
:102F5000BB6101253F2369468DE828000294039454
:102F60000494FFF7EDFD4FF48053694650468DE819
:102F70002800029403940494FFF7E2FD4FF4F073E9
:102F8000694630468DE828004FF4807A0294039415
:102F90000494FFF7D5FD69464046CDF800A00194A2
:102FA0000494FFF7CDFD4FF4F053694640468DE899
:102FB0002800029403940494FFF7C2FD6946484632
:102FC000CDF800A00195029403940494FFF7B8FD96
:102FD0001723694638468DE8280002940394049428
:102FE000FFF7AEFD2023694638468DE818000494AB
:102FF000FFF7A6FD4FF4C043694630468DE8180040
:103000000494FFF79DFD06B0BDE8F0870014024070
:1030100000180240000C0240000402400008024078
:103020000000024010B500234FF06044934201DBE2
:10303000104610BDD4F8800EC00703D5D4F8000E9A
:10304000C00702D40133F1E700BF20680028FBD09D
:10305000C85C2070F6E7000030B595B03022002142
:1030600008A801F04DFA0021142203A801F048FA43
:1030700000241C4B01941A6C42F080521A641B6CA1
:1030800003F080530193019B174B02941A6842F49A
:1030900080421A601B6803F480430293029B012361
:1030A00008934FF4803309934FF480030225A8223C
:1030B0000F9308A804231093119213930E95129561
:1030C000FEF718FC0F2303934FF4A053069305213A
:1030D0004FF4805303A8049505940793FEF7BAFDB7
:1030E00015B030BD0038024000700040064B202271
:1030F0009A614FF480029A614FF400029A614FF492
:1031000080729A61704700BF00180240054B202270
:103110009A614FF480029A6180229A614FF0807226
:103120009A61704700180240064B4FF400129A61F2
:1031300040229A614FF400029A614FF480729A61C2
:10314000704700BF00180240054B20229A614022C0
:103150009A6180229A614FF480729A61704700BF31
:10316000001802400D4B4FF480229A614FF4003258
:103170009A614FF480329A6102F1804202F5843202
:103180004FF0805191614FF0006191614FF080618B
:1031900091614FF480129A61704700BF000C0240A9
:1031A0000A4B4FF480229A6102229A614FF48032D6
:1031B0009A61A3F580634FF480529A614FF00062E8
:1031C0009A614FF480629A61704700BF000C024020
:1031D000094B04229A614FF400329A6101229A61EC
:1031E000A3F580634FF080529A614FF400629A61B8
:1031F0004FF080629A617047000C0240094B042234
:103200009A6102229A6101229A61A3F580634FF4C8
:1032100080529A614FF400629A614FF480629A6121
:10322000704700BF000C02402DE9F04F2DED028BDE
:1032300083B0FDF72BFEAE4CAE4DFFF70DFFFFF751
:1032400049FEFFF71FFE00F025FC00F07DFD00F0B9
:10325000D9FD00F007FE00F035FE00F015FDFFF788
:1032600043FD00F0F9FF01F065F801F02DF801F0E1
:1032700097F80021A048FFF78DF904219E48FFF739
:1032800089F900212046FFF785F900219B48FFF7C7
:10329000A1F904219948FFF79DF908219748FFF704
:1032A00099F90C219548FFF795F900219448FFF70B
:1032B00091F904219248FFF78DF908219048FFF712
:1032C00089F90C218E48FFF785F900212846FFF780
:1032D00061F92B688B4854225A63FEF703FE0021E4
:1032E0008948FEF70FFE04218748FEF70BFE0021F8
:1032F0008648FEF707FE04218448FEF703FE0822F5
:1033000083498448FDF794FE012283498348FFF7EF
:1033100007FBFFF7EBFEFFF725FF23684FF4A072D2
:103320005A63FDF7D9FD6CA7D7E900678146FDF721
:10333000D3FDA0EB09000928F9D9FDF7CDFD784BA5
:10334000DFF808A25A6ACAF8002003F58063DFF8A4
:1033500000825B6AC8F80030724B734D1B78473BA4
:1033600081460D2B43D8DFE813F0F90042000E0030
:103370000D02420042004200420042004200420070
:1033800042000702B801DFF8CCB19BF80050002DD5
:1033900056D1FFF7ABFEFFF7E5FE644BDFF89CA1CB
:1033A00010229A61544A0192116841F288338B636A
:1033B00050464D634FF480410093FEF795FA012883
:1033C000009B019A13D111688BF800008D634FF4B4
:1033D0008072574DCAF818208022CAF818202A682F
:1033E0002AB9286053484262C8F800204B63DFF8CE
:1033F00068A1DFF83481DFF818B19FED4F8A00250E
:103400003BF8153007EE903AF8EE677A0135EAECB2
:10341000017A67EE887A17EE900AFDF78DF830A3EF
:10342000D3E90023FCF728FF2FA3D3E90023FDF7FE
:1034300001FAFDF72FFB082D48F8040BE0D176E7E1
:10344000012D14D14FF400513C48FEF74DFA0128EC
:10345000CDD1374A1368012BC9D1022330491360FB
:1034600000224A62CAF800208BF80030BFE7022D24
:10347000BDD1334B1B689A4227DB324D3248297845
:1034800041B91D4B1B6859639963FFF75DFE01232A
:1034900001602B70FFF7B2FE0368B3F5167FA6D369
:1034A00023684FF4FA725A631D4A00235362CAF824
:1034B0000030C2F824341E4AC8F8003013602B7064
:1034C0004FF48012194B9A6191E70B4B1B6841F244
:1034D00088325A638BE700BF666666666666E63FBB
:1034E00014AE47E17A14EE3F3BDF4F8D976E923F6B
:1034F000C8020020880200204803002008030020A2
:1035000088030020C8030020480200200802002091
:10351000F8010020DC0000209801002008040020B1
:103520000004004008000020D8010020000C0240E8
:10353000B800002000080040000080390018024058
:103540000C000020B4000020B000002094000020F7
:1035500098000020AD000020A80100204FF4005189
:103560009648FEF7C1F9012853D14FF40051934812
:10357000FEF7BAF901285AD1914B1870DFF864B2FE
:103580009048DBF800300BBB95ED007A8E49FBEEDE
:103590000E7AB4EEE77AF1EE10FA53DD01230B70E8
:1035A0000123CBF80030FFF7CFFDFFF727FE0B78A4
:1035B000012B50D1854B4FF480229A6102230B706E
:1035C000834B1A7812B9026001221A700368B3F5AE
:1035D000487F0FD3FFF78AFD4FF400517748FEF77D
:1035E00083F901285CD1FFF7F3FD794A00231370BA
:1035F000CBF80030D8F80020DAF8003075499B1A73
:103600009A1C754A56DA0B6812885A6300229A632C
:10361000EDE64FF480416948FEF766F90128A4D031
:10362000FFF764FD694B4FF480129A61E2E74FF4B3
:1036300080416248FEF758F9012802BF604B002222
:103640001A709BE795ED017AB4EEE77AF1EE10FA85
:10365000A6DD0423A3E7022B05D15C4B4FF4803297
:103660009A610323ABE7032B05D14FF000625B4B5C
:103670009A610023A3E7042B05D1544B4FF4003289
:103680009A6105239BE7052B05D1544B4FF08052DF
:103690009A61062393E7062B92D14FF08062E6E70A
:1036A0004FF480414548FEF71FF901289DD1FFF7EF
:1036B00077FD9AE7022B0D68D5BF108810886863E4
:1036C0000023C8BF6B63FCF725FF32463B46FCF77F
:1036D00087FFFDF7BFF9A86389E63A4B1B68B3F58E
:1036E000FA7F3A4B3DD94FF480229A614FF4003271
:1036F0009A614FF480329A61A3F580634FF0805253
:103700009A614FF000629A614FF080629A61344B87
:103710001B784C2B13D0522B14D04FF40051274858
:10372000304DFEF7E1F801280FD12B68B3B1294BDA
:103730001B684FF47A625A634FF42F6267E7FFF712
:10374000E5FCEAE7FFF7F0FCE7E74FF480411B48B0
:10375000FEF7CAF80128E8D0002300E001232B601F
:10376000E5E710229A6123684FF4A0725A63144B64
:103770001B7823B1FFF72CFDFFF7E6FC37E6FFF7D8
:103780000FFDF9E795ED007AFBEE0E7AB4EEE77ADD
:10379000F1EE10FA04DDFFF71BFD4FF4802291E6F5
:1037A00095ED017AB4EEE77AF1EE10FA7FF71FAEED
:1037B000FFF7F6FC4FF4003284E600BF0018024029
:1037C000AC000020B0000020BE000020000C024031
:1037D000B4000020480300200A0000200008024036
:1037E000B5000020B800002003681A4A934210B5C3
:1037F000044616D1027F012A0BD100225A62237F90
:10380000082B05D10C212046FEF79EFB124B1860B9
:1038100010BD022AF3D10421FEF796FB0F4B18606E
:10382000EDE7B3F1804FF3D1027F012A0AD10022E4
:103830005A62237F082BEBD10C212046FEF784FB34
:10384000074BE4E7022AF4D10421FEF77DFB054B88
:103850001860EEE700000140A00000209C0000205E
:10386000A8000020A40000200268074B9A4209D15A
:10387000064A13684FF6FE718B428CBF4FF6FF73FA
:1038800001331360704700BF00140040B0000020F7
:103890002DE9F0410268704B2DED028B9A4286B003
:1038A00013D16E4C6E4E6F4801222146FFF738F857
:1038B0003278012A04D12378732B0BD16A4B1A700A
:1038C0002378022B04BF0123337006B0BDEC028BBA
:1038D000BDE8F081492B01D10222EFE7472B01D14E
:1038E0000322EBE74C2B01D0522B03D15F4A13701C
:1038F0000422E3E7722B01D10522DFE7032B40F01E
:103900009C80594F3A78013A0023042A07D8DFE80F
:1039100002F0030A12161A005322554B1A700023A4
:103920003B703370CCE7534A1360534A1370534AC9
:1039300013604922F1E74F4A13604722EDE74D4AF1
:1039400013605422E9E74E4D2888000BFCF7E2FD96
:103950003DA3D3E90023FCF78FFC3DA3D3E900236B
:10396000FCF768FFFDF74EF8464B80466889D3EDBB
:10397000008A454B000B93ED008AFCF7CBFD32A388
:10398000D3E90023FCF778FC31A3D3E90023FCF74B
:1039900051FFFDF737F804902889000BFCF7BAFDBA
:1039A00029A3D3E90023FCF767FC29A3D3E900236B
:1039B000FCF740FFFDF726F80390E888000BFCF7C2
:1039C000A9FD21A3D3E90023FCF756FC20A3D3E9EA
:1039D0000023FCF72FFFFDF715F80290A888000BD5
:1039E000FCF798FD18A3D3E90023FCF745FC18A3C6
:1039F000D3E90023FCF71EFFFDF704F80190688867
:103A0000000BFCF787FD10A3D3E90023FCF734FC7F
:103A10000FA3D3E90023FCF70DFFFCF7F3FFFDEE46
:103A2000E88ABDEEC88A0090434618EE902A18EE48
:103A3000101A164800F06CFD71E7022B01BF0A4A0C
:103A40000023137023703BE714AE47E17A14EE3F76
:103A50003BDF4F8D976E923F001001409801002090
:103A6000BD00002008040020BC000020B50000209C
:103A700008000020B0000020AD000020B8000020A9
:103A8000F8010020D8000020D000002020530008BA
:103A90007047000030B593B018242822002108A8F0
:103AA00000F02EFD2246002102A800F029FD1E4B49
:103AB0001E481A6C42F480421A641A6C02F4804266
:103AC0000192019A1A6B42F002021A631B6B03F017
:103AD00002030093009B4FF46043029303230225EB
:103AE000049302A9052307930395FFF729F80E9481
:103AF0004FF482720E4C09920023012208930A931C
:103B00000C920F934FF40072109308A90A232046D9
:103B100011930B950D92FFF7B5F8636823F010032E
:103B2000636013B030BD00BF0038024000040240A3
:103B30000038004082B00C4B002100915A6C42F4D6
:103B400080425A645A6C02F480420092009A0191B9
:103B50001A6C42F080521A641B6C03F0805301937C
:103B6000019B02B0704700BF003802407047FEE77B
:103B7000FEE7FEE7FEE7704770477047FDF7A0B924
:103B80000148FEF7FDB900BF080300200148FEF719
:103B9000F7B900BF880300200148FEF7F1B900BF64
:103BA000480200200148FEF7EBB900BF08020020E0
:103BB0000148FEF71DBF00BF080400200148FEF7C2
:103BC000DFB900BFC80300200148FDF7F3BC00BF08
:103BD0002401002070B50E4615460C46A31B9D42DD
:103BE00001DC284670BDAFF3008004F8010BF5E757
:103BF00008B50A4B1968024609B9094919601868DD
:103C0000694602448A4206D900F050FC0C23036046
:103C10004FF0FF3008BD1A6008BD00BFC000002093
:103C20004C0400204FF0FF3070474FF400534B60BE
:103C30000020704701207047002070470F49D1F8DD
:103C4000883043F47003C1F888300D4B1A680020A7
:103C500042F001021A6098601A6822F0847222F41D
:103C600080321A60074A5A601A6822F480221A6069
:103C7000D8604FF000638B60704700BF00ED00E03C
:103C8000003802401030002410B5002486B0102205
:103C9000214602A80094019400F032FC2848294AE9
:103CA0008460A72380E80C0047F22F53C3600461AF
:103CB00044618461FEF7A0FA08B1FFF7E9FE6946A6
:103CC0001F4800940194FEF7B6FC08B1FFF7E0FE30
:103CD00001230022039302A90F23194802920492A0
:103CE0000593FEF7C1FB08B1FFF7D2FE02230024C3
:103CF000042202A91248029303930594FEF7B4FB31
:103D000008B1FFF7C5FE0123082203930DEB020162
:103D10000F230B4802940593FEF7A6FB08B1FFF7AB
:103D2000B7FE0223029303930C22002302A9044846
:103D30000593FEF799FB08B1FFF7AAFE06B010BD88
:103D4000080300200000014010B5002486B01022B6
:103D5000214602A80094019400F0D2FB2848532386
:103D60004FF0804280E80C0047F22F538460C3601C
:103D700004618461FEF740FA08B1FFF789FE6946E5
:103D80001F4800940194FEF756FC08B1FFF780FE2F
:103D900001230022039302A90F23194802920492DF
:103DA0000593FEF761FB08B1FFF772FE02230024C2
:103DB000042202A91248029303930594FEF754FBD0
:103DC00008B1FFF765FE0123082203930DEB020102
:103DD0000F230B4802940593FEF746FB08B1FFF74B
:103DE00057FE0223029303930C22002302A90448E6
:103DF0000593FEF739FB08B1FFF74AFE06B010BD88
:103E00008803002010B58CB02422002103A800F004
:103E100077FB1248124A532380E80C0047F22F53D5
:103E2000C36003230024039303A901230194029494
:103E300084600461846105930993FEF7F7F908B182
:103E4000FFF726FE01A9054801940294FEF7F3FB53
:103E500008B1FFF71DFE0CB010BD00BF48020020E6
:103E60000004004010B58CB02422002103A800F00B
:103E700047FB1248124A532380E80C0047F22F53A5
:103E8000C36003230024039303A901230194029434
:103E900084600461846105930993FEF7C7F908B152
:103EA000FFF7F6FD01A9054801940294FEF7C3FB54
:103EB00008B1FFF7EDFD0CB010BD00BF08020020F7
:103EC0000008004013B50E4A0E485323002480E832
:103ED0000C0040F2E733009401948460C360846175
:103EE000FEF756F908B1FFF7D3FD6946054800947F
:103EF0000194FEF7A0FB08B1FFF7CAFD02B010BDA8
:103F000000140040C803002070B514228AB0044693
:103F100000210DEB020000F0F3FA2368374A9342C8
:103F20002AD1374B3748002400945A6C42F00102E2
:103F30005A645A6C02F001020092009A01941A6BC2
:103F400042F010021A631B6B03F010030193019BF4
:103F50004FF4085305930223069305A901230993FF
:103F6000FDF7E2FB1B2022462146FDF7E7F91B2067
:103F7000FDF718FA0AB070BDB3F1804FFAD103F51E
:103F80000E33002402941A6C1F4842F001021A6496
:103F90001A6C02F001020292029A03941A6B42F028
:103FA00002021A631A6B02F002020392039A04944B
:103FB0001A6B42F001021A631B6B03F001030493B6
:103FC000049B02264FF48063012505A905930696FC
:103FD0000995FDF7A9FB4FF4004305A90B4805938C
:103FE0000696079408940995FDF79EFB1C2022462F
:103FF0002146FDF7A3F91C20BAE700BF00000140ED
:10400000003802400010024000040240000002405C
:1040100010B514228AB0044600210DEB020000F016
:104020006FFA23682A4A934228D12A4B2A4800244F
:1040300001941A6C42F002021A641A6C02F0020235
:104040000192019A02941A6B42F004021A631B6BEC
:1040500003F004030293029BC023059305A90223E6
:1040600006930993FDF760FB1D2022462146FDF7CC
:1040700065F91D20FDF796F90AB010BD174A934265
:10408000FAD1144B1648002403941A6C42F004022F
:104090001A641A6C02F004020392039A04941A6BD5
:1040A00042F008021A631B6B03F008030493049B9D
:1040B0004FF44053059305A9022306930993FDF796
:1040C00033FB1E2022462146FDF738F91E20D1E79A
:1040D0000004004000380240000802400008004090
:1040E000000C02401FB503681C4A934215D1002200
:1040F0001B4B0192196C41F0200119641B6C03F0F9
:104100002003019337201146019BFDF717F9372053
:10411000FDF748F905B05DF804FB124A93420CD153
:10412000002302930E4B5A6C42F480225A645B6C5B
:1041300003F480230293029BECE70B4A9342E9D1FC
:1041400000230393064B1A6C42F080021A641B6C26
:1041500003F080030393039BDCE700BF00140040DF
:104160000038024000480140001C00400268094B32
:104170009A4282B00BD100230193074B5A6C42F450
:1041800080325A645B6C03F480330193019B02B06C
:10419000704700BF004001400038024010B504469F
:1041A00088B01422002103A800F0AAF92368244A49
:1041B000934217D100230093224B23481A6B42F0FD
:1041C00010021A631B6B03F010030093009B602323
:1041D0000393022304930323079303A9FDF7A4FA8F
:1041E00008B010BD194A934214D100230193154B16
:1041F0001A6B42F020021A631B6B03F02003019339
:10420000019B80230393022304930323079303A9B1
:104210000F48E3E70F4A9342E2D100230293094B90
:104220001A6B42F020021A631B6B03F02003029307
:10423000029B4FF480730393022304930923E5E761
:104240000040014000380240001002400048014098
:1042500000140240001C004010B588B01C22002150
:1042600001A800F04DF91648164B4FF0C70C00247A
:1042700080E8081042F2CF038460C3600461846167
:10428000FDF7A0FF08B1FFF703FC6023002201A99E
:104290000B480193029403940594FEF749F808B182
:1042A000FFF7F6FB04220DEB02010548FEF740F88C
:1042B00008B1FFF7EDFB0248FFF770FF08B010BD33
:1042C000480300200040014000B589B01C220021B5
:1042D00001A800F015F91548154940F28F1380E840
:1042E0000A0042F2CF0200238360C260036183614F
:1042F000FDF74EFF08B1FFF7CBFB0C48FDF762FF5F
:1043000008B1FFF7C5FB0022602301A9074801930C
:10431000029203920592FEF70BF808B1FFF7B8FB83
:104320000248FFF73BFF09B05DF804FBC80200201C
:104330000048014000B589B01C22002101A800F00E
:10434000DFF81548154940F2F31380E80A0042F2FD
:10435000CF0200238360C26003618361FDF718FF11
:1043600008B1FFF795FB0C48FDF72CFF08B1FFF7EC
:104370008FFB0022602301A9074801930292039258
:104380000592FDF7D5FF08B1FFF782FB0248FFF762
:1043900005FF09B05DF804FB88020020001C004006
:1043A00008B50B480B4B4FF4E13E80E808400C2267
:1043B00000238360C360036142618361C361FEF7D0
:1043C00081FA18B1BDE80840FFF762BB08BD00BF25
:1043D000080400200010014010B5044688B01422E3
:1043E000002103A800F08CF82268194B9A422DD1C5
:1043F00003F59433002401945A6C164842F01002DD
:104400005A645A6C02F010020192019A02941A6BDB
:1044100042F001021A631B6B03F001030293029B3B
:104420004FF4C063039302230493012305930323F2
:10443000069303A907230793FDF776F92520224663
:104440002146FCF77BFF2520FCF7ACFF08B010BD30
:104450000010014000000240DFF834D0002103E0EA
:104460000C4B5B58435004310B480C4B42189A429A
:10447000F6D30B4A02E0002342F8043B094B9A4270
:10448000F9D3FFF7DBFB00F017F8FEF7CDFE70471E
:1044900000000220105400080000002078000020D6
:1044A000780000204C040020FEE70000014B186853
:1044B000704700BF1400002070B50D4E0D4CA41BBA
:1044C000A4100025A54209D10B4E0C4C00F018FF9A
:1044D000A41BA4100025A54205D170BD56F82530B7
:1044E00098470135EEE756F8253098470135F2E751
:1044F0000854000808540008085400080C54000828
:1045000002440346934200D1704703F8011BF9E7C8
:104510000FB40A4B13B51C6824B1A36913B9204624
:1045200000F04EF805AB049AA1680193204600F014
:1045300059F902B0BDE8104004B0704714000020E3
:10454000014900F0A9B800BFB9500008002310B518
:10455000044603604360836081814366C2810361D6
:1045600043618361194608225C30FFF7C9FF054BA0
:104570006362054BA362054BE362054B2462236330
:1045800010BD00BF5D4D00087F4D0008B74D00080D
:10459000DB4D000870B54A1E682555430E4605F1EF
:1045A000740100F097F8044640B1002180E8420011
:1045B0000C30A06005F16802FFF7A2FF204670BD35
:1045C000836910B5044633BB8364C3640365124B2F
:1045D000124A1B688262984204BF0123836100F083
:1045E0001FF86060204600F01BF8A060204600F035
:1045F00017F80022E06004216068FFF7A7FF01229E
:104600000921A068FFF7A2FF02221221E068FFF74C
:104610009DFF0123A36110BD6853000841450008B8
:10462000F8B51C4B1E68B369074613B93046FFF74F
:10463000C7FF4836B4687368013B03D5336833B1AC
:104640003668F7E7B4F90C506DB16834F4E704212B
:104650003846FFF79FFF30600028F1D10C233B6004
:1046600004462046F8BD4FF6FF73E3810123A38182
:1046700065662560A560656025616561A5610822A4
:10468000294604F15C00FFF73BFF6563A563A56461
:10469000E564E6E7685300082DE9F843804689465B
:1046A00000F14804002614B93046BDE8F883A56837
:1046B0006768013F01D52468F5E7AB89012B07D96D
:1046C000B5F90E30013303D029464046C8470643AA
:1046D0006835EEE770B5CD1C25F0030508350C2DC7
:1046E00038BF0C25002D064601DBA94203D90C2357
:1046F0003360002070BD00F07FFD234A146821461E
:1047000091B9224C23681BB9304600F017FB20609A
:104710002946304600F012FB431C26D10C2333609F
:10472000304600F06AFDE4E70B685B1B1AD40B2BE4
:104730000FD90B60CD50CC18304600F05EFD04F16F
:104740000B00231D20F00700C31A1BD05A42E25071
:1047500070BD8C420DBF63684B686360136018BF07
:104760000C46E9E70C464968CAE7C41C24F0030478
:10477000A04205D0211A304600F0E0FA0130CDD039
:104780002560D9E770BD00BFC4000020C80000202C
:104790009368013B002B10B4936009DA9469A3423B
:1047A00002DBCBB20A2B03D15DF8044B00F01ABB3D
:1047B0001368581C10601970C8B25DF8044B70473C
:1047C000F8B506460F461446D518AC4201D1002074
:1047D00007E03A4614F8011B3046FFF7D9FF431CA7
:1047E000F3D1F8BD2DE9F04F9DB00C461746039369
:1047F000064618B183690BB9FFF7E2FE7C4B9C4279
:1048000057D17468A38918075DD52369002B5AD046
:104810000023099320238DF8293030238DF82A3086
:104820004FF0010BB846454615F8013B002B55D11A
:10483000B8EB070A0BD053463A4621463046FFF7FD
:10484000BFFF013000F0C480099B5344099398F8DE
:104850000030002B00F0BC8000234FF0FF320493A7
:104860000793059206938DF853301A930522297801
:104870006048FBF7ADFC05F10108049B002831D12D
:10488000D90644BF20228DF853201A0744BF2B229B
:104890008DF853202A782A2A2CD0079A00210A2042
:1048A000A846013598F80030303B092B6DD971B31B
:1048B00026E0514B9C4201D1B468A3E74F4B9C4288
:1048C00008BFF4689EE72146304600F0EFFA002862
:1048D0009ED04FF0FF301DB0BDE8F08F252BA7D044
:1048E000A846A0E7434A801A0BFA00F01843049048
:1048F0004546BBE7039A111D12680391002A01DBAC
:10490000079204E0524243F002030792049398F89E
:1049100000302E2B10D198F801302A2B08F101011C
:1049200037D1039B1A1D1B680392002BB8BF4FF0B1
:10493000FF3308F102080593314D98F80010032267
:104940002846FBF745FC40B14023401B03FA00F02A
:10495000049B0343049308F1010898F800102948C8
:104960008DF82810062208F10107FBF731FC00281A
:1049700034D0254B03BB039B073323F007030833D5
:104980000393099B4B4409934CE700FB023201213E
:1049900086E70023059318460A258846013198F8D2
:1049A0000020303A092A03D9002BC5D00590C3E76F
:1049B00005FB00200123F0E703AB00932246134BD5
:1049C00004A93046AFF30080B0F1FF3F8146D8D153
:1049D000A3895B063FF57DAF09987CE703AB0093A5
:1049E00022460A4B04A9304600F088F8ECE700BFE5
:1049F0008C530008CC530008AC5300086C530008DB
:104A0000D2530008D653000800000000C147000838
:104A10002DE9F04791461F468A680B69DDF8208032
:104A20009342B8BF1346C9F8003091F843200646B8
:104A30000C4612B10133C9F800302368990642BF11
:104A4000D9F800300233C9F80030256815F00605A2
:104A500007D104F1190AE368D9F800209B1A9D4296
:104A600029DB94F843302268003318BF01239206F3
:104A70002ED404F1430239463046C047013021D0DC
:104A80002368E568D9F8002003F00603042B08BF6B
:104A9000AD1AA36822690CBF25EAE575002593428B
:104AA000C4BF9B1AED184FF000091A344D451BD1B5
:104AB0000020BDE8F0870123524639463046C04702
:104AC000013003D14FF0FF30BDE8F0870135C2E778
:104AD000E1185A1C302081F84300224494F8451014
:104AE00082F843100233C4E7012322463946304698
:104AF000C0470130E6D009F10109D7E72DE9F043BD
:104B000017460A7E85B06E2A984606460C460C9BD0
:104B100001F1430E00F0BC801AD8632A2ED00AD8C7
:104B2000002A00F0C880582A00F08A8004F142056B
:104B300084F842202AE0642A01D0692AF6D121684B
:104B40001A6811F0800F23D0111D1960136827E037
:104B5000732A00F0B48008D86F2A2AD0702AE5D1D1
:104B60000A6842F020020A6003E0752A21D0782A00
:104B7000DCD1782284F845206E4964E01A6801F19E
:104B80004205111D1960136884F842300123A3E027
:104B900011F0400F02F104011960D7D0B2F90030D2
:104BA000002B03DA2D225B4284F8432062490A225B
:104BB00017E02068196810F0800F03D0081D1860F6
:104BC0000B6806E010F0400F01F104001860F7D008
:104BD0000B8859496F2A14BF0A220822002084F842
:104BE00043006568A560002DC0F29C80206820F01D
:104BF00004002060002B3FD1002D40F095807546C9
:104C0000082A0BD12368DA0708D5236962689A421B
:104C1000DEBF302305F8013C05F1FF35AEEB05039F
:104C20002361CDF800803B4603AA21463046FFF7BA
:104C3000EFFE013055D14FF0FF3005B0BDE8F083F5
:104C400081F845203C492268186812F0800F00F175
:104C500004051D6001D0036802E05506FBD50388FA
:104C6000D00744BF42F0200222601BB9226822F024
:104C7000200222601022B1E77546B3FBF2F002FB7E
:104C80001033CB5C05F8013D03460028F5D1B7E7AA
:104C900008681A68496910F0800F04D0101D186068
:104CA0001368196007E010F0400F02F1040018606B
:104CB0001368F6D01980002323617546B1E71A689E
:104CC000111D19601568626800212846FBF780FAFB
:104CD00008B1401B606063682361002384F843309F
:104CE0009FE723692A4639463046C0470130A2D0A3
:104CF00023689B0707D5002504F11909E368039A87
:104D00009B1A9D4205DBE068039B9842B8BF18469A
:104D100093E701234A4639463046C04701308AD0DE
:104D20000135EBE7002BA7D10B7884F8423004F172
:104D3000420565E7EE530008DD53000838B5064C20
:104D40000023054608462360FEF752FF431C02D1AC
:104D5000236803B12B6038BD4804002010B50C4611
:104D6000B1F90E1000F098FA0028ABBF636DA3896B
:104D70001B1823F48053ACBF6365A38110BD2DE9DC
:104D8000F0411F468B89DB0505460C46164605D5C6
:104D900002230022B1F90E1000F0B8F9A389B4F98A
:104DA0000E1023F48053A38132463B462846BDE8CB
:104DB000F04100F069B810B50C46B1F90E1000F0E2
:104DC000A5F9431CA38915BF606523F4805343F400
:104DD0008053A38118BFA38110BDB1F90E1000F05C
:104DE000D3B80000F8B50E461446054618B18369DD
:104DF0000BB9FFF7E5FB214B9C422AD16C68A369F4
:104E0000A360A3891A072ED5236963B32369206899
:104E1000C01A6369F6B29842374604DB2146284639
:104E200000F04AF928BBA368013BA36023685A1C21
:104E300022601E7063690130984204D0A389DB07A9
:104E400019D50A2E17D12146284600F035F990B120
:104E50000FE00B4B9C4201D1AC68D0E7094B9C4260
:104E600008BFEC68CBE72146284600F01FF8002871
:104E7000CCD04FF0FF373846F8BD00BF8C53000848
:104E8000AC5300086C53000838B5074C054608467B
:104E90001146002222601A46FEF7C4F8431C02D1D4
:104EA000236803B12B6038BD48040020324B70B535
:104EB0001D6806460C4625B1AB6913B92846FFF7B5
:104EC0007FFB2E4B9C420FD16C68B4F90C309AB228
:104ED00015072CD4D00611D40922326043F04003C8
:104EE000A3814FF0FF3070BD254B9C4201D1AC68CF
:104EF000EBE7244B9C4208BFEC68E6E7510712D56C
:104F0000616B41B104F14403994202D0304600F094
:104F100075F900236363A38923F02403A38100238D
:104F2000636023692360A38943F00803A381236995
:104F30004BB9A38903F42073B3F5007F03D0214656
:104F4000304600F019F9A28912F001030CD00023B9
:104F5000A36063695B42A361236953B9B4F90C3060
:104F600013F08000BAD170BD920758BF6369A36087
:104F7000F2E70020F7E700BF140000208C53000880
:104F8000AC5300086C53000838B5064C00230546A6
:104F900008462360FEF746FE431C02D1236803B196
:104FA0002B6038BD480400208A892DE9F041054670
:104FB00010070C465AD44B68002B05DC0B6C002BF9
:104FC00002DC0020BDE8F081E66A002EF9D0002363
:104FD00012F480522F682B6033D0606DA3895A077A
:104FE00005D56368C01A636B0BB1236CC01A00232C
:104FF0000246E66A216A2846B047431CA38906D1C7
:1050000029681D294BD82B4ACA40D60747D500220C
:105010006260D9042269226004D5421C01D12B6848
:1050200003B96065616B2F600029CAD004F14403A5
:10503000994202D0284600F0E1F800206063BDE804
:10504000F081216A01232846B047411CC6D12B6854
:10505000002BC3D01D2B01D0162B01D12F60B0E740
:10506000A38943F04003A381BDE8F0810F69002FBD
:10507000A7D093070E6808BF4B690F6018BF0023C5
:10508000A6EB07088B60B8F1000F9ADD43463A465D
:10509000216AA66A2846B047002807DCA38943F0A6
:1050A0004003A3814FF0FF30BDE8F0810744A8EB37
:1050B0000008E8E70100402038B50B6905460C46BA
:1050C000DBB118B183690BB9FFF77AFA0C4B9C423C
:1050D00009D16C68B4F90C307BB121462846BDE893
:1050E0003840FFF761BF074B9C4201D1AC68F1E744
:1050F000054B9C4208BFEC68ECE7002038BD00BFC0
:105100008C530008AC5300086C53000838B5074CAA
:10511000054608461146002222601A46FEF78CFD1D
:10512000431C02D1236803B12B6038BD4804002022
:1051300070B50E46B1F90E10002990B014461D4608
:1051400007DA00232B60B3891A0610D44FF480636A
:105150000EE001AA00F0B2F80028F2DB029A02F495
:105160007042A2F500535A425A412A60EEE74023AA
:105170000020236010B070BD8B8973B59D07064673
:105180000C4607D504F147032360236101236361C3
:1051900002B070BD01AB6A46FFF7CAFF0099054631
:1051A0003046FFF797FA48B9B4F90C309A05EFD4B6
:1051B00023F0030343F00203A381E3E70D4BB36243
:1051C000A389206043F08003A381009B6361019B5E
:1051D00020615BB1B4F90E10304600F081F828B1BF
:1051E000A38923F0030343F00103A381A3891D4393
:1051F000A581CDE7414500087047704738B50546A1
:10520000002945D051F8043C0C1F002BB8BFE4180E
:10521000FFF7F2FF1F4A1368104633B9636014604A
:105220002846BDE83840FFF7E8BFA3420CD9216803
:105230006218934204BF1A685B68636004BF521827
:1052400022600460ECE713465A680AB1A242FAD918
:1052500019685818A0420BD120680144581882429E
:105260001960DDD1106852685A6001441960D7E7AF
:1052700002D90C232B60D3E7206821188A4204BF8F
:1052800011685268626004BF091821605C60C7E75A
:1052900038BD00BFC400002038B5074C054608469D
:1052A0001146002222601A46FEF794FC431C02D1EC
:1052B000236803B12B6038BD4804002038B5074C83
:1052C00000230546084611462360FEF7AEFC431C4A
:1052D00002D1236803B12B6038BD00BF4804002011
:1052E00038B5064C0023054608462360FEF7A2FCAD
:1052F000431C02D1236803B12B6038BD4804002051
:10530000F8B500BFF8BC08BC9E467047F8B500BFB2
:08531000F8BC08BC9E46704782
:105318000006101600061016523A25643B503A252E
:10532800643B464C3A25643B46523A25643B4D4C17
:105338003A25643B4D523A25643B424C3A25643B3E
:1053480042523A25643B0A000000000000000000B9
:105358000102030406070809000000000102030413
:1053680018000020000000000000000000000000FD
:105378000000000000000000000000000000000025
:105388000000000000000000000000000000000015
:105398000000000000000000000000000000000005
:1053A80000000000000000000000000000000000F5
:1053B80000000000000000000000000000000000E5
:1053C80000000000232D302B2000686C4C0065661F
:1053D800674546470030313233343536373839413E
:1053E8004243444546003031323334353637383954
:0853F800616263646566000058
:0854000064B7FF7F010000000A
:04540800B5010008E2
:04540C009101000802
:1054100001000000100000005300581B2300000092
:105420000024F40018000020000000008C53000845
:10543000AC5300086C53000800000000000000009E
:10544000000000000000000000000000000000005C
:10545000000000000000000000000000000000004C
:10546000000000000000000000000000000000003C
:10547000000000000000000000000000000000002C
:08548000000000000000000024
:040000050800445952
:00000001FF
